:100AD900105A0000000000000000000000000000A3
:0C0AE900000008522019122019195507AE
:100BBB00D2945307FEE4FEEF30E004D2938002C2DE
:100BCB0093D292C292EFC313FF0EBE08EAE4FEED7E
:100BDB0030E004D2938002C293D292C292EDC3133F
:070BEB00FD0EBE08EAC294F2
:010BF20022E0
:100B8000D294430701E4FDEF30E004D2938002C227
:100B900093D292C292EFC313FF0DBD08EAE4FDEEBB
:100BA000C313FE309305430680800353067FD29221
:0A0BB000C2920DBD08E9C294AF0621
:010BBA002218
:100B3300E4FD7F8E120BBB7D807F80120BBB7DA9F2
:100B43007F90120BBBAD537F8C120BBBAD547F88D0
:100B5300120BBBAD557F86120BBBAD567F84120BB8
:100B6300BBAD577F82120BBBAD587F80120BBBAD61
:0D0B7300597F8A120BBB7D807F8E020BBB69
:10092F007F8C120B808F537F88120B808F547F86A2
:10093F00120B808F557F84120B808F567F82120B84
:10094F00808F577F80120B80EF547FF5587F8A126C
:10095F000B808F59E552C4540FF55AE552540FF5D9
:10096F005BE553C4540FF55CE553540FF55DE55447
:10097F00C4540FF55EE554540FF55FE555C4540F9D
:10098F00F560E555540FF561E5595407F568E556DF
:10099F00C4540FF562E556540FF563E557C4540F71
:1009AF00F564E557540FF565E558C4540FF566E542
:0609BF0058540FF56722F9
:0E0D4F0053890FE4F58B758DB8C28FD28E22BA
:03002B00020A5175
:0D0A5100C0E0C0D075D000C005C006C007D1
:100A5E00C2CF0551E55164047066F55112092FE5B8
:100A6E0052C4540FF55AE552540FF55BE553C45476
:100A7E000FF55CE553540FF55DE554C4540FF55E68
:100A8E00E554540FF55FE555C4540FF560E5555424
:100A9E000FF561E5595407F568E556C4540FF56234
:100AAE00E556540FF563E557C4540FF564E55754F6
:100ABE000FF565E558C4540FF566E558540FF56704
:0B0ACE00D007D006D005D0D0D0E03219
:100AF500014E0001220001480001240002390000D6
:100B0500014D00014300013F00022F0000043B009E
:100B1500000000042500000000044900000000C199
:0D0B25000004440000000001210001380020
:0E0D31007FB07E15EF1FAC0670011E4C70F6F1
:010D3F002291
:100CF1007D05AC051DEC60107E1C7F65EF1FAA060B
:080D010070011E4A60EC80F451
:010D090022C7
:100C5700D29100000000000000000000000000002A
:100C6700000000000000000000000000000000007D
:0F0C7700000000000000000000000000C29122F9
:040CD3007F017E001F
:100CD7007C64EF4E60131CEC60087D0A1DED60F626
:090CE70080FAEF1F70EC1E80E999
:010CF00022E1
:0D0D5D00758901E4F58CF58AD2A9D2AF2288
:1006F000120C573090FDD28C2090FDC28CAF8CEF45
:10070000FEAD8A7C00E42DF530EC3EF52FE4F58C4F
:10071000F58AAC2FAD301201D97B9A7A9979D978C4
:100720003F12002EE4FBFA79C87842120137120218
:10073000128F3E8E3D8D3C8C3BE47FBC7E02FDFCE7
:10074000AB3EAA3DA93CA83BC31203BE50033000F8
:1007500019C2007B2D7D01E4FF120CB47B2D7D01BD
:100760007F01120CB47B2D02080FE47BE87A03F9B9
:10077000F8AF3EAE3DAD3CAC3B12031EAC00AD014C
:10078000AE02AF03E47B64FAF9F812031EEF2430E3
:10079000FB7D01E4FF120CB4E47BE87A03F9F8AFC7
:1007A0003EAE3DAD3CAC3B12031EAC00AD01AE0213
:1007B000AF03E47B64FAF9F812031EAC00AD01AE9E
:1007C00002AF03E47B0AFAF9F812031EEF2430FBB0
:1007D0007D017F01120CB4E47BE87A03F9F8AF3EA7
:1007E000AE3DAD3CAC3B12031EAC00AD01AE02AF62
:1007F00003E47B0AFAF9F812031EAC00AD01AE0265
:10080000AF03E47B0AFAF9F812031EEB2430FB7DF8
:07081000017F02120CB4226B
:1008170012092FE55E75F00AA4255FF52BE56075D3
:10082700F00AA42561F536E56275F00AA42563F59B
:1008370037E56475F00AA42565F523E56675F00AC2
:10084700A42567F535E52B75F06484E5F075F00AA6
:10085700842430FBE4FD7F01120CB4E52B75F00A0C
:1008670084E5F02430FBE4FD7F02120CB47B2DE419
:10087700FD7F03120CB4E53675F06484E5F075F07E
:100887000A842430FBE4FD7F04120CB4E53675F0CE
:100897000A84E5F02430FBE4FD7F05120CB4E5374C
:1008A70075F06484E5F075F00A842430FBE4FD7F7D
:1008B70007120CB4E53775F00A84E5F02430FBE441
:1008C700FD7F08120CB47B3AE4FD7F09120CB4E5F6
:1008D7002375F06484E5F075F00A842430FBE4FDA9
:1008E7007F0A120CB4E52375F00A84E5F02430FB87
:1008F700E4FD7F0B120CB47B3AE4FD7F0C120CB4C1
:10090700E53575F06484E5F075F00A842430FBE47E
:10091700FD7F0D120CB4E53575F00A84E5F024303F
:08092700FBE4FD7F0E020CB49D
:0B0D8300C2B2120CF1120CF1D2B2222D
:100C2700120CF1120C86120CF1120D5D120D4F12FF
:100C37000B33D280D281D282D283D284D2B7C2B3CD
:100C47001206F0853E4C853D4B853C4A853B492243
:1003CF00E4F508F509F50AF50BF50C120C271208E0
:1003DF0017E54065356013053AE53A7002053905B2
:1003EF002EE52E7002052D1206F0853540C3E53E31
:1003FF00954CFFE53D954BFE120D77D3EF9402EE32
:10040F0064809480401BAF4CAE4BAD4AAC49AB3EC1
:10041F00AA3DA93CA83B1203BE500675240175489E
:10042F0001E524B4010FD2B3D280D281D282D2831C
:10043F00D284E4F508E5242430FB7D017F0F120CF4
:10044F00B4853E4C853D4B853C4A853B49E537C3DA
:10045F0094064007E537D39408400EE537C394124E
:10046F004049E537D39416504230B711E54D700D22
:10047F0030950630960320973BC2B7802B20B41BD4
:10048F00120CD320B41530B4FD7B317D017F0D12DA
:10049F000CB4754D0175391C753A20D3E53A940AA1
:1004AF00E5399400400ED2B7E48005E4F54DD2B79C
:1004BF00F539F53AE53620E00FE537B4130AE54E86
:1004CF007006120D83754E01E53764136003E4F572
:1004DF004E20B515120CD320B50F30B5FD7B327DF4
:1004EF00017F0D120CB4120D8320B615120CD32000
:1004FF00B60F30B6FD7B337D017F0D120CB4754303
:10050F0001E5082430FB7D017F0A120CB4E47BE87F
:10051F007A03F9F8AF28AE27AD26AC2512031EAC2F
:10052F0000AD01AE02AF03E47B64FAF9F812031ECB
:10053F00EF2430FB7D017F05120CB4E47BE87A03D6
:10054F00F9F8AF28AE27AD26AC2512031EAC00ADCF
:10055F0001AE02AF03E47B64FAF9F812031EAC009C
:10056F00AD01AE02AF03E47B0AFAF9F812031EEFF6
:10057F002430FB7D017F06120CB4E47BE87A03F98B
:10058F00F8AF28AE27AD26AC2512031EAC00AD0187
:10059F00AE02AF03E47B0AFAF9F812031EAC00AD0A
:1005AF0001AE02AF03E47B0AFAF9F812031EEB2443
:1005BF0030FB7D017F07120CB4E536640F6005E553
:1005CF0036B41E0BE548700720B704E5246009E533
:1005DF0043640160030206CDE508700AF509F50AC8
:1005EF007508010206CDE50864017056050AE50A93
:1005FF0070020509D2B3D39402E5099400500302A7
:10060F0006CDD284C280C281853E28853D27853C98
:10061F0026853B25E47B03FAF9F8AF28AE27AD26F4
:10062F00AC2512031EE47B02FAF9F81202938F280D
:10063F008E278D268C25E4F509F50AC2B3750802BD
:10064F00807CE508B40224AF28AE27AD26AC25ABDD
:10065F003EAA3DA93CA83BC31203BE5061D280D233
:10066F0081E4F509F50A7508038053E508B40326FC
:10067F00C282C283E47F1EFEFDFCAB3EAA3DA93CB5
:10068F00A83BD31203BE4036D282D283E4F509F5DC
:10069F000A7508048028E508B40423050AE50A70E2
:1006AF00020509C284D2B3D39405E5099400400E24
:1006BF00E4F509F50AC2B3F508F543754801E536C7
:1006CF00640F6009E536641E6003E4F548E52470A5
:1006DF0006E5087002C2847F647E00120CD7020305
:0106EF00DD2D
:03000B00020003ED
:03000300D20032F6
:0F0D4000303132333435363738392E2D4D0000EF
:100D0A0075A0FFC287D286C285C285D285E5A0209A
:050D1A00E7FBAFA02281
:100D1F00AE07120D0A8EA0D287C286C285C285D2B7
:020D2F0085221B
:05000E00E4FDFC7F3859
:10001300AE07ED4C6003120D0A8EA0C287C286C2E2
:0600230085C285D2852292
:0D0D6A00D287D286C285C285D285AFA02275
:100C8600E4F5A012000F120D3112000E120D3112F2
:100C9600000E120D317D017C007F381200137F0C8F
:0E0CA6001200137F011200131D7F06020013BF
:100CB400AE0753050153060FED6003430640430698
:0F0CC40080AF067D017C00120013AF03020D1FED
:080BF3008D0D8A0E8B0FA9077E
:100BFB00E4FA530D0153010FE50F2AF582E4350E8C
:100C0B00F583E493FBD394194011E9D3940F50E887
:0B0C1B00AF01AD0D120CB40A0980DD22
:010C260022AB
:10002E00EC4D6011E8497017ED33EC3304600DE4CC
:10003E00FCFFFEFD22E933E8330470F802027E1263
:10004E00024958046009E4CC248150062850090264
:10005E000288284003020285C0E0EB4A7044B98052
:10006E0006D0E0FB020274EF4E701CBD8008EBFF61
:10007E00EAFEE9FD80EBE98DF0A4FEE5F002011742
:10008E00E9CDF9EAFEEBFFEF89F0A4FCE5F0CE89AD
:10009E00F0A42EFFE435F0CD89F0A42DFEE435F06A
:1000AE008067EF4E7005BD80D780C3EF8BF0A4AC98
:1000BE00F0EE8BF0A42CFCE435F0F8EF8AF0A42CD3
:1000CE00E5F038FCE433CB8DF0A42CFCE5F03BF8E6
:1000DE00EE8AF0A42CFCE5F038F8E433CF89F0A4D6
:1000EE002CFCE5F038CF3400CE89F0A42FFFE5F0DC
:1000FE003EFEE433C98DF0A42EFEE5F039CD8AF034
:10010E00A42FFFE5F03EFEE43DFD33D0E0FB5007AB
:10011E000BBB000F020288EC2CFCEF33FFEE33FE1C
:06012E00ED33FD0202604A
:10013400020288EC5D046005E85904700302027E43
:10014400120249580460F6EC4860F2EC7004FDFEBB
:10015400FF22C860DB2481C85009C398600250069E
:100164000202859850CAF582E9294B4A7005AB8290
:1001740002027475F0007C1A7880C3EF9BEE9AED4E
:1001840099400DC3EF9BFFEE9AFEED99FDE842F016
:10019400DC23ACF0D0E0FFD0E0FED0E0FDAB822069
:1001A400E7101BEB60BAEC2CFCEF33FFEE33FEEDF3
:1001B40033FD020260E803F830E705C0F075F00093
:1001C400EF2FFFEE33FEED33FD40B830E7C280AAD7
:1001D40075F020800E75F010800575F0087D007EA6
:1001E400007F003392D530D5031203B0EC334010B6
:1001F400EF33FFEE33FEED33FDEC33FCD5F0ED22AF
:0E020400E5F0247EA2D513CC92E7CDCEFF22EA
:10021200EDD2E7CD33EC3392D524814006E4FFFEE4
:10022200FDFC22FCE4CFCECDCC24E0501174FF8043
:10023200EDC3CC13CCCD13CDCE13CECF13CF0470E0
:07024200F030D5DE0203B02D
:10024900E9D2E7C933E833F892D5EDD2E7CD33ECFB
:0702590033FC5002B2D52274
:10026000EC30E7100FBF000C0EBE00080DBD0004FF
:100270000BEB6014A2D5EB13FCED92E7FD2274FFAB
:10028000FCFDFEFF22E480F8A2D574FF13FC7D8004
:03029000E480EF18
:030000000209C52D
:0C09C500787FE4F6D8FD758169020A0C09
:10029300E88FF0A4CC8BF0A42CFCE98EF0A42CFC0A
:1002A3008AF0EDA42CFCEA8EF0A4CDA8F08BF0A488
:1002B3002DCC3825F0FDE98FF0A42CCD35F0FCEBE7
:1002C3008EF0A4FEA9F0EB8FF0A4CFC5F02ECD39AC
:0F02D300FEE43CFCEAA42DCE35F0FDE43CFC2219
:1002E20075F008758200EF2FFFEE33FECD33CDCCD3
:1002F20033CCC58233C5829BED9AEC99E582984056
:100302000CF582EE9BFEED9AFDEC99FC0FD5F0D632
:10031200E4CEFBE4CDFAE4CCF9A88222B800C1B95C
:100322000059BA002DEC8BF084CFCECDFCE5F0CB9A
:10033200F97818EF2FFFEE33FEED33FDEC33FCEBD3
:1003420033FB10D703994004EB99FB0FD8E5E4F98E
:10035200FA227818EF2FFFEE33FEED33FDEC33FC7B
:10036200C933C910D7059BE99A4007EC9BFCE99A6F
:10037200F90FD8E0E4C9FAE4CCFB2275F010EF2FB4
:10038200FFEE33FEED33FDCC33CCC833C810D707B4
:100392009BEC9AE899400AED9BFDEC9AFCE899F8EF
:0E03A2000FD5F0DAE4CDFBE4CCFAE4C8F92282
:0E03B000C3E49FFFE49EFEE49DFDE49CFC225E
:1003BE00EB9FF5F0EA9E42F0E99D42F0E89C45F095
:0103CE00220C
:0C0D7700EE30E707C3E49FFFE49EFE227D
:1009D1000203CFE493A3F8E493A34003F68001F26A
:1009E10008DFF48029E493A3F85407240CC8C33327
:1009F100C4540F4420C8834004F456800146F6DFF6
:100A0100E4800B0102040810204080900AD9E47EA2
:100A1100019360BCA3FF543F30E509541FFEE493EA
:100A2100A360010ECF54C025E060A840B8E493A3B1
:100A3100FAE493A3F8E493A3C8C582C8CAC583CADC
:100A4100F0A3C8C582C8CAC583CADFE9DEE780BE94
:010B320000C2
:00000001FF
