:100A19001049000000000000000000000000000074
:0C0A290000000841201006150747550684
:05000300C294C292222C
:100B2700D2945307FEE4FEEF30E004D2938002C272
:100B370093D292C292EFC313FF0EBE08EAE4FEED12
:100B470030E004D2938002C293D292C292EDC313D3
:070B5700FD0EBE08EAC29486
:010B5E002274
:100AB300D294430701E4FDEF30E004D2938002C2F5
:100AC30093D292C292EFC313FF0DBD08EAE4FDEE89
:100AD300C313FE309305430680800353067FD292EF
:0A0AE300C2920DBD08E9C294AF06EF
:010AED0022E6
:100A6D00E4FD7F8E120B277D807F80120B27AD4218
:100A7D007F8C120B27AD437F88120B27AD447F86E9
:100A8D00120B27AD457F84120B27AD467F82120BCB
:100A9D0027AD477F80120B27AD487F8A120B277D2C
:060AAD00807F8E020B2782
:10086F007F8C120AB38F427F88120AB38F437F8621
:10087F00120AB38F447F84120AB38F457F82120A04
:10088F00B38F467F80120AB3EF547FF5477F8A12EA
:10089F000AB38F48E541C4540FF549E541540FF5AC
:1008AF004AE542C4540FF54BE542540FF54CE5436E
:1008BF00C4540FF54DE543540FF54EE544C4540FA2
:1008CF00F54FE544540FF550E5485407F557E54506
:1008DF00C4540FF551E545540FF552E546C4540F76
:1008EF00F553E546540FF554E547C4540FF555E558
:0608FF0047540FF55622DC
:0E0C6A0053890FE4F58B758DB8C28FD28E22A0
:03002B0002099136
:0D099100C0E0C0D075D000C005C006C00792
:10099E00C2CF0540E54064047066F54012086FE56D
:1009AE0041C4540FF549E541540FF54AE542C4548C
:1009BE000FF54BE542540FF54CE543C4540FF54D7E
:1009CE00E543540FF54EE544C4540FF54FE544543A
:1009DE000FF550E5485407F557E545C4540FF5514A
:1009EE00E545540FF552E546C4540FF553E546540C
:1009FE000FF554E547C4540FF555E547540FF5561A
:0B0A0E00D007D006D005D0D0D0E032D9
:0F0C5B00303132333435363738392E2D4D0000D5
:100A3500013F00012200013A00022E0000013500AD
:100A4500012100012D0001340002290000043000BD
:100A5500000000042400000000043B00000000C169
:070A65000004360000000050
:0E0C4C007FB07E15EF1FAC0670011E4C70F6D7
:010C5A002277
:100C0B007D05AC051DEC60107E1C7F65EF1FAA06F1
:080C1B0070011E4A60EC80F438
:010C230022AE
:100C39008F0E120C24850EA0D287C286C285C2856A
:030C4900D285222F
:080BEC00120C4CE4FDFC7F3803
:100BF4008F0EED4C6003120C24850EA0C287C286B2
:070C0400C285C285D28522E2
:0D0C7800D287D286C285C285D285AFA02268
:100C240075A0FFC287D286C285C285D285E5A02081
:050C3400E7FBAFA02268
:100B5F00E4F5A0120BF0120BEC120BEC120C4C7D07
:100B6F00017C007F38120BF47D017C007F0C120B8F
:100B7F00F47D017C007F01120BF4E4FDFC7F060283
:020B8F000BF465
:0F0BC00075F06484E5F075F00A842430FBE4FDE1
:100BCF008B0D53050153070FED6003430740430798
:0D0BDF00807D017C00120BF4AF0D020C397B
:080AEE008F0F8D108A118B128D
:100AF600E4F513531001530F0FE5122513F582E4A5
:100B06003511F583E493FBD394194014E50FD39480
:100B16000F50E6AD10AF0F120BCF0513050F80D99E
:010B260022AC
:10066300AF8CEFFEAD8A7C00E42DF52AEC3EF52934
:10067300E4F58CF58AAC29AD2A1201D97B9A7A99D3
:1006830079D9783F12002EE4FBFA79C87842120137
:10069300371202128F338E328D318C30E47FBC7E61
:1006A30002FDFCAB33AA32A931A830C312036F5049
:1006B30003300023C200900C66E493FB7D01E4FF4A
:1006C300120BCF900C66E493FB7D017F01120BCFDD
:1006D300900C66E402078EE47BE87A03F9F8AF3303
:1006E300AE32AD31AC301202CFAC00AD01AE02AFD1
:1006F30003E47B64FAF9F81202CF8F36E47BE87ADD
:1007030003F9F8AF33AE32AD31AC301202CFAC00E7
:10071300AD01AE02AF03E47B64FAF9F81202CFAC89
:1007230000AD01AE02AF03E47B0AFAF9F81202CF7F
:100733008F37E47BE87A03F9F8AF33AE32AD31ACEF
:10074300301202CFAC00AD01AE02AF03E47B0AFA74
:10075300F9F81202CFAC00AD01AE02AF03E47B0A9D
:10076300FAF9F81202CFAF038F38E536900C5B939A
:10077300FB7D01E4FF120BCFE537900C5B93FB7D10
:10078300017F01120BCFE538900C5B93FB7D017F5A
:0507930002120BCF2251
:100B9100D2910000000000000000000000000000F1
:100BA1000000000000000000000000000000000044
:0F0BB100000000000000000000000000C29122C0
:10000E007C64EF4E60131CEC60087D0A1DED60F6FB
:09001E0080FAEF1F70EC1E80E96E
:0100270022B6
:0D0C8500758901E4F58CF58AD2A9D2AF2261
:1007980012086FE54D75F00AA4254EF528E54F754A
:1007A800F00AA42550F52BE55175F00AA42552F559
:1007B8002CE55375F00AA42554F523E5287F01128A
:1007C8000BC0E52875F00A84E5F02430FBE4FD7FD2
:1007D80002120BCFE52B7F04120BC0E52B75F00A34
:1007E80084E5F02430FBE4FD7F05120BCFE52C7582
:1007F800F06484E5F075F00A842430FBE4FD7F079B
:10080800120BCFE52C75F00A84E5F02430FBE4FDEB
:100818007F08120BCF7B3AE4FD7F09120BCFE5234B
:1008280075F06484E5F075F00A842430FBE4FD7FFC
:100838000A120BCFE52375F00A84E5F02430FBE4B7
:10084800FD7F0B120BCF7B3AE4FD7F0C120BCFE53B
:10085800552430FBE4FD7F0D120BCFE5562430FB09
:07086800E4FD7F0E020BCF3F
:10038000E4F508F509F50AF50BF50C120C0B120B48
:100390005F120C4C120C78E4FB120C0B0BBB0AF92D
:1003A000120C85120C6A120A6DD280D281D282D2CE
:1003B00083D284D2B7D2B3120B913090FDD28C206D
:1003C00090FDC28C12066385333E85323D85313CFB
:1003D00085303B120798120B913090FDD28C209003
:1003E000FDC28C120663C3E533953EFFE532953DB1
:1003F000FE120C9285333E85323D85313C85303B83
:10040000E52C64066012E52C6407600CE52C641290
:100410006006E52C6413702130B71E209507C2B723
:10042000E4F52EF52F209607C2B7E4F52EF52F2020
:100430009707C2B7E4F52EF52F20B72E20B4137F0F
:10044000017E0012000E20B40930B4FD752E007537
:100450002F0A052FE52F7002052ED394C8E52E94A0
:10046000004007D2B7E4F52EF52FE52CB41323E5B1
:100470003F701F6322FFE5226018C2B5050CE50C32
:100480007002050BD394C8E50B94004002D2B575F9
:100490003F01E52C64136003E4F53F20B5107F01B4
:1004A0007E0012000E20B50630B5FD753501E50859
:1004B0002430FB7D017F0A120BCFE47BE87A03F93D
:1004C000F8AF27AE26AD25AC241202CFAC00AD01AB
:1004D000AE02AF03E47B64FAF9F81202CF8F36E480
:1004E0007BE87A03F9F8AF27AE26AD25AC241202DB
:1004F000CFAC00AD01AE02AF03E47B64FAF9F812B1
:1005000002CFAC00AD01AE02AF03E47B0AFAF9F80A
:100510001202CF8F37E47BE87A03F9F8AF27AE26D3
:10052000AD25AC241202CFAC00AD01AE02AF03E4A6
:100530007B0AFAF9F81202CFAC00AD01AE02AF03AC
:10054000E47B0AFAF9F81202CFAF038F38E5369050
:100550000C5B93FB7D017F05120BCFE537900C5BA5
:1005600093FB7D017F06120BCFE538900C5B93FB6C
:100570007D017F07120BCFE52BB40404E53A600937
:10058000E5356401600302064BE508700AF509F5DC
:100590000A75080102064BE508B40134050AE50AAC
:1005A00070020509C2B3D39402E509940050030216
:1005B000064BD284C280C28185332785322685319D
:1005C00025853024E4F509F50AD2B3750802807B4D
:1005D000E508B40223E47F2C7E01FDFCAB33AA3294
:1005E000A931A830C312036F5061D280D281E4F5E3
:1005F00009F50A7508038053E508B40326C282C2D0
:1006000083E47F3CFEFDFCAB33AA32A931A830D392
:1006100012036F4036D282D283E4F509F50A7508D9
:10062000048028E508B40423050AE50A70020509D8
:10063000C284C2B3D39405E5099400400EE4F509E1
:10064000F50AD2B3F508F535753A01E52B64046077
:1006500008E5357004C284F53A7F647E0012000E0E
:030660000203D3BF
:03000B00020008E8
:03000800D20032F1
:10002E00EC4D6011E8497017ED33EC3304600DE4CC
:10003E00FCFFFEFD22E933E8330470F802027E1263
:10004E00024958046009E4CC248150062850090264
:10005E000288284003020285C0E0EB4A7044B98052
:10006E0006D0E0FB020274EF4E701CBD8008EBFF61
:10007E00EAFEE9FD80EBE98DF0A4FEE5F002011742
:10008E00E9CDF9EAFEEBFFEF89F0A4FCE5F0CE89AD
:10009E00F0A42EFFE435F0CD89F0A42DFEE435F06A
:1000AE008067EF4E7005BD80D780C3EF8BF0A4AC98
:1000BE00F0EE8BF0A42CFCE435F0F8EF8AF0A42CD3
:1000CE00E5F038FCE433CB8DF0A42CFCE5F03BF8E6
:1000DE00EE8AF0A42CFCE5F038F8E433CF89F0A4D6
:1000EE002CFCE5F038CF3400CE89F0A42FFFE5F0DC
:1000FE003EFEE433C98DF0A42EFEE5F039CD8AF034
:10010E00A42FFFE5F03EFEE43DFD33D0E0FB5007AB
:10011E000BBB000F020288EC2CFCEF33FFEE33FE1C
:06012E00ED33FD0202604A
:10013400020288EC5D046005E85904700302027E43
:10014400120249580460F6EC4860F2EC7004FDFEBB
:10015400FF22C860DB2481C85009C398600250069E
:100164000202859850CAF582E9294B4A7005AB8290
:1001740002027475F0007C1A7880C3EF9BEE9AED4E
:1001840099400DC3EF9BFFEE9AFEED99FDE842F016
:10019400DC23ACF0D0E0FFD0E0FED0E0FDAB822069
:1001A400E7101BEB60BAEC2CFCEF33FFEE33FEEDF3
:1001B40033FD020260E803F830E705C0F075F00093
:1001C400EF2FFFEE33FEED33FD40B830E7C280AAD7
:1001D40075F020800E75F010800575F0087D007EA6
:1001E400007F003392D530D503120361EC33401005
:1001F400EF33FFEE33FEED33FDEC33FCD5F0ED22AF
:0E020400E5F0247EA2D513CC92E7CDCEFF22EA
:10021200EDD2E7CD33EC3392D524814006E4FFFEE4
:10022200FDFC22FCE4CFCECDCC24E0501174FF8043
:10023200EDC3CC13CCCD13CDCE13CECF13CF0470E0
:07024200F030D5DE0203617C
:10024900E9D2E7C933E833F892D5EDD2E7CD33ECFB
:0702590033FC5002B2D52274
:10026000EC30E7100FBF000C0EBE00080DBD0004FF
:100270000BEB6014A2D5EB13FCED92E7FD2274FFAB
:10028000FCFDFEFF22E480F8A2D574FF13FC7D8004
:03029000E480EF18
:03000000020905ED
:0C090500787FE4F6D8FD75815802094C9B
:1002930075F008758200EF2FFFEE33FECD33CDCC22
:1002A30033CCC58233C5829BED9AEC99E5829840A5
:1002B3000CF582EE9BFEED9AFDEC99FC0FD5F0D682
:1002C300E4CEFBE4CDFAE4CCF9A88222B800C1B9AC
:1002D3000059BA002DEC8BF084CFCECDFCE5F0CBEA
:1002E300F97818EF2FFFEE33FEED33FDEC33FCEB23
:1002F30033FB10D703994004EB99FB0FD8E5E4F9DE
:10030300FA227818EF2FFFEE33FEED33FDEC33FCCA
:10031300C933C910D7059BE99A4007EC9BFCE99ABE
:10032300F90FD8E0E4C9FAE4CCFB2275F010EF2F03
:10033300FFEE33FEED33FDCC33CCC833C810D70703
:100343009BEC9AE899400AED9BFDEC9AFCE899F83E
:0E0353000FD5F0DAE4CDFBE4CCFAE4C8F922D1
:0E036100C3E49FFFE49EFEE49DFDE49CFC22AD
:10036F00EB9FF5F0EA9E42F0E99D42F0E89C45F0E4
:01037F00225B
:0C0C9200EE30E707C3E49FFFE49EFE2263
:10091100020380E493A3F8E493A34003F68001F279
:1009210008DFF48029E493A3F85407240CC8C333E7
:10093100C4540F4420C8834004F456800146F6DFB6
:10094100E4800B0102040810204080900A19E47E23
:10095100019360BCA3FF543F30E509541FFEE493AB
:10096100A360010ECF54C025E060A840B8E493A372
:10097100FAE493A3F8E493A3C8C582C8CAC583CA9D
:10098100F0A3C8C582C8CAC583CADFE9DEE780BE55
:010A6C000089
:00000001FF
